{
  "contractName": "SSSS",
  "abi": [
    {
      "inputs": [],
      "payable": false,
      "stateMutability": "nonpayable",
      "type": "constructor"
    },
    {
      "constant": true,
      "inputs": [],
      "name": "greeting",
      "outputs": [
        {
          "internalType": "string",
          "name": "",
          "type": "string"
        }
      ],
      "payable": false,
      "stateMutability": "view",
      "type": "function"
    },
    {
      "constant": false,
      "inputs": [],
      "name": "clearMap",
      "outputs": [],
      "payable": false,
      "stateMutability": "nonpayable",
      "type": "function"
    },
    {
      "constant": false,
      "inputs": [
        {
          "internalType": "int256",
          "name": "_x",
          "type": "int256"
        },
        {
          "internalType": "int256",
          "name": "_y",
          "type": "int256"
        }
      ],
      "name": "setMap",
      "outputs": [],
      "payable": false,
      "stateMutability": "nonpayable",
      "type": "function"
    }
  ],
  "bytecode": "0x608060405234801561001057600080fd5b506040518060400160405280600581526020017f48656c6c6f0000000000000000000000000000000000000000000000000000008152506000908051906020019061005c929190610062565b50610107565b828054600181600116156101000203166002900490600052602060002090601f016020900481019282601f106100a357805160ff19168380011785556100d1565b828001600101855582156100d1579182015b828111156100d05782518255916020019190600101906100b5565b5b5090506100de91906100e2565b5090565b61010491905b808211156101005760008160009055506001016100e8565b5090565b90565b610201806101166000396000f3fe608060405234801561001057600080fd5b50600436106100405760003560e01c80623df0b6146100455780636a134fa71461007d578063ef690cc014610087575b600080fd5b61007b6004803603604081101561005b57600080fd5b81019080803590602001909291908035906020019092919050505061010a565b005b61008561011c565b005b61008f61012e565b6040518080602001828103825283818151815260200191508051906020019080838360005b838110156100cf5780820151818401526020810190506100b4565b50505050905090810190601f1680156100fc5780820380516001836020036101000a031916815260200191505b509250505060405180910390f35b80600281905550816001819055505050565b60006001819055506000600281905550565b60008054600181600116156101000203166002900480601f0160208091040260200160405190810160405280929190818152602001828054600181600116156101000203166002900480156101c45780601f10610199576101008083540402835291602001916101c4565b820191906000526020600020905b8154815290600101906020018083116101a757829003601f168201915b50505050508156fea265627a7a72315820d3ed62c6f00896f71f98f8d09070723a8f5fe8754e2a33568d67778710c94d1464736f6c63430005100032",
  "source": "pragma solidity >=0.4.22 <0.8.0;\r\n\r\n\r\ncontract SSSS {\r\n    string public greeting;\r\n    int private _X;\r\n    int private _Y;\r\n    \r\n    constructor() public {\r\n        greeting = 'Hello';\r\n    }\r\n    \r\n    function clearMap() public {\r\n        _X = 0;\r\n        _Y = 0;\r\n    }\r\n\r\n    function setMap(int _x, int _y) public {\r\n        _Y =  _y;\r\n        _X = _x;\r\n    }\r\n/*\r\n    function getMap(uint _x) view public returns (uint) {\r\n        return da[_x];\r\n    }\r\n*/\r\n}\r\n",
  "sourcePath": "/mnt/f/2020jeju/contracts/SSSS.sol",
  "compiler": {
    "name": "solc",
    "version": "0.5.16+commit.9c3226ce.Emscripten.clang"
  },
  "schemaVersion": "3.2.3",
  "updatedAt": "2020-08-26T02:45:32.420Z",
  "networkType": "ethereum",
  "devdoc": {
    "methods": {}
  },
  "userdoc": {
    "methods": {}
  }
}